{
  "_format": "hh-sol-artifact-1",
  "contractName": "CryptoCocoA",
  "sourceName": "contracts/CryptoCocoA.sol",
  "abi": [
    {
      "inputs": [],
      "stateMutability": "nonpayable",
      "type": "constructor"
    },
    {
      "anonymous": false,
      "inputs": [
        {
          "indexed": true,
          "internalType": "address",
          "name": "owner",
          "type": "address"
        },
        {
          "indexed": true,
          "internalType": "address",
          "name": "approved",
          "type": "address"
        },
        {
          "indexed": true,
          "internalType": "uint256",
          "name": "tokenId",
          "type": "uint256"
        }
      ],
      "name": "Approval",
      "type": "event"
    },
    {
      "anonymous": false,
      "inputs": [
        {
          "indexed": true,
          "internalType": "address",
          "name": "owner",
          "type": "address"
        },
        {
          "indexed": true,
          "internalType": "address",
          "name": "operator",
          "type": "address"
        },
        {
          "indexed": false,
          "internalType": "bool",
          "name": "approved",
          "type": "bool"
        }
      ],
      "name": "ApprovalForAll",
      "type": "event"
    },
    {
      "anonymous": false,
      "inputs": [
        {
          "indexed": true,
          "internalType": "address",
          "name": "previousOwner",
          "type": "address"
        },
        {
          "indexed": true,
          "internalType": "address",
          "name": "newOwner",
          "type": "address"
        }
      ],
      "name": "OwnershipTransferred",
      "type": "event"
    },
    {
      "anonymous": false,
      "inputs": [
        {
          "indexed": true,
          "internalType": "address",
          "name": "from",
          "type": "address"
        },
        {
          "indexed": true,
          "internalType": "address",
          "name": "to",
          "type": "address"
        },
        {
          "indexed": true,
          "internalType": "uint256",
          "name": "tokenId",
          "type": "uint256"
        }
      ],
      "name": "Transfer",
      "type": "event"
    },
    {
      "inputs": [
        {
          "internalType": "address",
          "name": "to",
          "type": "address"
        },
        {
          "internalType": "uint256",
          "name": "tokenId",
          "type": "uint256"
        }
      ],
      "name": "approve",
      "outputs": [],
      "stateMutability": "nonpayable",
      "type": "function"
    },
    {
      "inputs": [
        {
          "internalType": "address",
          "name": "owner",
          "type": "address"
        }
      ],
      "name": "balanceOf",
      "outputs": [
        {
          "internalType": "uint256",
          "name": "",
          "type": "uint256"
        }
      ],
      "stateMutability": "view",
      "type": "function"
    },
    {
      "inputs": [
        {
          "internalType": "uint256",
          "name": "tokenId",
          "type": "uint256"
        }
      ],
      "name": "getApproved",
      "outputs": [
        {
          "internalType": "address",
          "name": "",
          "type": "address"
        }
      ],
      "stateMutability": "view",
      "type": "function"
    },
    {
      "inputs": [
        {
          "internalType": "address",
          "name": "owner",
          "type": "address"
        },
        {
          "internalType": "address",
          "name": "operator",
          "type": "address"
        }
      ],
      "name": "isApprovedForAll",
      "outputs": [
        {
          "internalType": "bool",
          "name": "",
          "type": "bool"
        }
      ],
      "stateMutability": "view",
      "type": "function"
    },
    {
      "inputs": [
        {
          "internalType": "string",
          "name": "cid",
          "type": "string"
        }
      ],
      "name": "mint",
      "outputs": [],
      "stateMutability": "nonpayable",
      "type": "function"
    },
    {
      "inputs": [],
      "name": "name",
      "outputs": [
        {
          "internalType": "string",
          "name": "",
          "type": "string"
        }
      ],
      "stateMutability": "view",
      "type": "function"
    },
    {
      "inputs": [],
      "name": "owner",
      "outputs": [
        {
          "internalType": "address",
          "name": "",
          "type": "address"
        }
      ],
      "stateMutability": "view",
      "type": "function"
    },
    {
      "inputs": [
        {
          "internalType": "uint256",
          "name": "tokenId",
          "type": "uint256"
        }
      ],
      "name": "ownerOf",
      "outputs": [
        {
          "internalType": "address",
          "name": "",
          "type": "address"
        }
      ],
      "stateMutability": "view",
      "type": "function"
    },
    {
      "inputs": [],
      "name": "renounceOwnership",
      "outputs": [],
      "stateMutability": "nonpayable",
      "type": "function"
    },
    {
      "inputs": [
        {
          "internalType": "address",
          "name": "from",
          "type": "address"
        },
        {
          "internalType": "address",
          "name": "to",
          "type": "address"
        },
        {
          "internalType": "uint256",
          "name": "tokenId",
          "type": "uint256"
        }
      ],
      "name": "safeTransferFrom",
      "outputs": [],
      "stateMutability": "nonpayable",
      "type": "function"
    },
    {
      "inputs": [
        {
          "internalType": "address",
          "name": "from",
          "type": "address"
        },
        {
          "internalType": "address",
          "name": "to",
          "type": "address"
        },
        {
          "internalType": "uint256",
          "name": "tokenId",
          "type": "uint256"
        },
        {
          "internalType": "bytes",
          "name": "_data",
          "type": "bytes"
        }
      ],
      "name": "safeTransferFrom",
      "outputs": [],
      "stateMutability": "nonpayable",
      "type": "function"
    },
    {
      "inputs": [
        {
          "internalType": "address",
          "name": "operator",
          "type": "address"
        },
        {
          "internalType": "bool",
          "name": "approved",
          "type": "bool"
        }
      ],
      "name": "setApprovalForAll",
      "outputs": [],
      "stateMutability": "nonpayable",
      "type": "function"
    },
    {
      "inputs": [
        {
          "internalType": "bytes4",
          "name": "interfaceId",
          "type": "bytes4"
        }
      ],
      "name": "supportsInterface",
      "outputs": [
        {
          "internalType": "bool",
          "name": "",
          "type": "bool"
        }
      ],
      "stateMutability": "view",
      "type": "function"
    },
    {
      "inputs": [],
      "name": "symbol",
      "outputs": [
        {
          "internalType": "string",
          "name": "",
          "type": "string"
        }
      ],
      "stateMutability": "view",
      "type": "function"
    },
    {
      "inputs": [
        {
          "internalType": "uint256",
          "name": "tokenId",
          "type": "uint256"
        }
      ],
      "name": "tokenURI",
      "outputs": [
        {
          "internalType": "string",
          "name": "",
          "type": "string"
        }
      ],
      "stateMutability": "view",
      "type": "function"
    },
    {
      "inputs": [
        {
          "internalType": "address",
          "name": "from",
          "type": "address"
        },
        {
          "internalType": "address",
          "name": "to",
          "type": "address"
        },
        {
          "internalType": "uint256",
          "name": "tokenId",
          "type": "uint256"
        }
      ],
      "name": "transferFrom",
      "outputs": [],
      "stateMutability": "nonpayable",
      "type": "function"
    },
    {
      "inputs": [
        {
          "internalType": "address",
          "name": "newOwner",
          "type": "address"
        }
      ],
      "name": "transferOwnership",
      "outputs": [],
      "stateMutability": "nonpayable",
      "type": "function"
    }
  ],
  "bytecode": "0x60806040523480156200001157600080fd5b50604080518082018252600b81526a43727970746f436f636f4160a81b602080830191825283518085019094526005845264434f434f4160d81b908401528151919291620000629160009162000122565b5080516200007890600190602084019062000122565b505050620000956200008f620000cc60201b60201c565b620000d0565b60408051808201909152600780825266697066733a2f2f60c81b6020909201918252620000c59160099162000122565b5062000205565b3390565b600780546001600160a01b038381166001600160a01b0319831681179093556040519116919082907f8be0079c531659141344cd1fd0a4f28419497f9722a3daafe3b4186f6b6457e090600090a35050565b8280546200013090620001c8565b90600052602060002090601f0160209004810192826200015457600085556200019f565b82601f106200016f57805160ff19168380011785556200019f565b828001600101855582156200019f579182015b828111156200019f57825182559160200191906001019062000182565b50620001ad929150620001b1565b5090565b5b80821115620001ad5760008155600101620001b2565b600181811c90821680620001dd57607f821691505b60208210811415620001ff57634e487b7160e01b600052602260045260246000fd5b50919050565b611d2180620002156000396000f3fe608060405234801561001057600080fd5b506004361061010b5760003560e01c8063715018a6116100a2578063b88d4fde11610071578063b88d4fde1461021b578063c87b56dd1461022e578063d85d3d2714610241578063e985e9c514610254578063f2fde38b1461029057600080fd5b8063715018a6146101e75780638da5cb5b146101ef57806395d89b4114610200578063a22cb4651461020857600080fd5b806323b872dd116100de57806323b872dd1461018d57806342842e0e146101a05780636352211e146101b357806370a08231146101c657600080fd5b806301ffc9a71461011057806306fdde0314610138578063081812fc1461014d578063095ea7b314610178575b600080fd5b61012361011e366004611768565b6102a3565b60405190151581526020015b60405180910390f35b6101406102f5565b60405161012f9190611a70565b61016061015b3660046117e6565b610387565b6040516001600160a01b03909116815260200161012f565b61018b61018636600461173f565b610414565b005b61018b61019b366004611651565b61052a565b61018b6101ae366004611651565b61055b565b6101606101c13660046117e6565b610576565b6101d96101d4366004611605565b6105ed565b60405190815260200161012f565b61018b610674565b6007546001600160a01b0316610160565b6101406106aa565b61018b610216366004611705565b6106b9565b61018b61022936600461168c565b6106c8565b61014061023c3660046117e6565b610700565b61018b61024f3660046117a0565b610877565b61012361026236600461161f565b6001600160a01b03918216600090815260056020908152604080832093909416825291909152205460ff1690565b61018b61029e366004611605565b61095c565b60006001600160e01b031982166380ac58cd60e01b14806102d457506001600160e01b03198216635b5e139f60e01b145b806102ef57506301ffc9a760e01b6001600160e01b03198316145b92915050565b60606000805461030490611be9565b80601f016020809104026020016040519081016040528092919081815260200182805461033090611be9565b801561037d5780601f106103525761010080835404028352916020019161037d565b820191906000526020600020905b81548152906001019060200180831161036057829003601f168201915b5050505050905090565b6000610392826109f7565b6103f85760405162461bcd60e51b815260206004820152602c60248201527f4552433732313a20617070726f76656420717565727920666f72206e6f6e657860448201526b34b9ba32b73a103a37b5b2b760a11b60648201526084015b60405180910390fd5b506000908152600460205260409020546001600160a01b031690565b600061041f82610576565b9050806001600160a01b0316836001600160a01b0316141561048d5760405162461bcd60e51b815260206004820152602160248201527f4552433732313a20617070726f76616c20746f2063757272656e74206f776e656044820152603960f91b60648201526084016103ef565b336001600160a01b03821614806104a957506104a98133610262565b61051b5760405162461bcd60e51b815260206004820152603860248201527f4552433732313a20617070726f76652063616c6c6572206973206e6f74206f7760448201527f6e6572206e6f7220617070726f76656420666f7220616c6c000000000000000060648201526084016103ef565b6105258383610a14565b505050565b6105343382610a82565b6105505760405162461bcd60e51b81526004016103ef90611b0a565b610525838383610b68565b610525838383604051806020016040528060008152506106c8565b6000818152600260205260408120546001600160a01b0316806102ef5760405162461bcd60e51b815260206004820152602960248201527f4552433732313a206f776e657220717565727920666f72206e6f6e657869737460448201526832b73a103a37b5b2b760b91b60648201526084016103ef565b60006001600160a01b0382166106585760405162461bcd60e51b815260206004820152602a60248201527f4552433732313a2062616c616e636520717565727920666f7220746865207a65604482015269726f206164647265737360b01b60648201526084016103ef565b506001600160a01b031660009081526003602052604090205490565b6007546001600160a01b0316331461069e5760405162461bcd60e51b81526004016103ef90611ad5565b6106a86000610d08565b565b60606001805461030490611be9565b6106c4338383610d5a565b5050565b6106d23383610a82565b6106ee5760405162461bcd60e51b81526004016103ef90611b0a565b6106fa84848484610e29565b50505050565b606061070b826109f7565b6107715760405162461bcd60e51b815260206004820152603160248201527f45524337323155524953746f726167653a2055524920717565727920666f72206044820152703737b732bc34b9ba32b73a103a37b5b2b760791b60648201526084016103ef565b6000828152600660205260408120805461078a90611be9565b80601f01602080910402602001604051908101604052809291908181526020018280546107b690611be9565b80156108035780601f106107d857610100808354040283529160200191610803565b820191906000526020600020905b8154815290600101906020018083116107e657829003601f168201915b50505050509050600061082160408051602081019091526000815290565b9050805160001415610834575092915050565b81511561086657808260405160200161084e929190611846565b60405160208183030381529060405292505050919050565b61086f84610e5c565b949350505050565b6007546001600160a01b031633146108a15760405162461bcd60e51b81526004016103ef90611ad5565b60006009826040516020016108b7929190611875565b604051602081830303815290604052905060006109046108de6108d960085490565b610f34565b836040516020016108f0929190611960565b60405160208183030381529060405261104e565b9050600081604051602001610919919061191b565b604051602081830303815290604052905061093c3361093760085490565b6111c2565b61094e61094860085490565b826111dc565b6106fa600880546001019055565b6007546001600160a01b031633146109865760405162461bcd60e51b81526004016103ef90611ad5565b6001600160a01b0381166109eb5760405162461bcd60e51b815260206004820152602660248201527f4f776e61626c653a206e6577206f776e657220697320746865207a65726f206160448201526564647265737360d01b60648201526084016103ef565b6109f481610d08565b50565b6000908152600260205260409020546001600160a01b0316151590565b600081815260046020526040902080546001600160a01b0319166001600160a01b0384169081179091558190610a4982610576565b6001600160a01b03167f8c5be1e5ebec7d5bd14f71427d1e84f3dd0314c0f7b2291e5b200ac8c7c3b92560405160405180910390a45050565b6000610a8d826109f7565b610aee5760405162461bcd60e51b815260206004820152602c60248201527f4552433732313a206f70657261746f7220717565727920666f72206e6f6e657860448201526b34b9ba32b73a103a37b5b2b760a11b60648201526084016103ef565b6000610af983610576565b9050806001600160a01b0316846001600160a01b03161480610b345750836001600160a01b0316610b2984610387565b6001600160a01b0316145b8061086f57506001600160a01b0380821660009081526005602090815260408083209388168352929052205460ff1661086f565b826001600160a01b0316610b7b82610576565b6001600160a01b031614610be35760405162461bcd60e51b815260206004820152602960248201527f4552433732313a207472616e73666572206f6620746f6b656e2074686174206960448201526839903737ba1037bbb760b91b60648201526084016103ef565b6001600160a01b038216610c455760405162461bcd60e51b8152602060048201526024808201527f4552433732313a207472616e7366657220746f20746865207a65726f206164646044820152637265737360e01b60648201526084016103ef565b610c50600082610a14565b6001600160a01b0383166000908152600360205260408120805460019290610c79908490611ba6565b90915550506001600160a01b0382166000908152600360205260408120805460019290610ca7908490611b5b565b909155505060008181526002602052604080822080546001600160a01b0319166001600160a01b0386811691821790925591518493918716917fddf252ad1be2c89b69c2b068fc378daa952ba7f163c4a11628f55a4df523b3ef91a4505050565b600780546001600160a01b038381166001600160a01b0319831681179093556040519116919082907f8be0079c531659141344cd1fd0a4f28419497f9722a3daafe3b4186f6b6457e090600090a35050565b816001600160a01b0316836001600160a01b03161415610dbc5760405162461bcd60e51b815260206004820152601960248201527f4552433732313a20617070726f766520746f2063616c6c65720000000000000060448201526064016103ef565b6001600160a01b03838116600081815260056020908152604080832094871680845294825291829020805460ff191686151590811790915591519182527f17307eab39ab6107e8899845ad3d59bd9653f200f220920489ca2b5937696c31910160405180910390a3505050565b610e34848484610b68565b610e4084848484611267565b6106fa5760405162461bcd60e51b81526004016103ef90611a83565b6060610e67826109f7565b610ecb5760405162461bcd60e51b815260206004820152602f60248201527f4552433732314d657461646174613a2055524920717565727920666f72206e6f60448201526e3732bc34b9ba32b73a103a37b5b2b760891b60648201526084016103ef565b6000610ee260408051602081019091526000815290565b90506000815111610f025760405180602001604052806000815250610f2d565b80610f0c84610f34565b604051602001610f1d929190611846565b6040516020818303038152906040525b9392505050565b606081610f585750506040805180820190915260018152600360fc1b602082015290565b8160005b8115610f825780610f6c81611c24565b9150610f7b9050600a83611b73565b9150610f5c565b60008167ffffffffffffffff811115610fab57634e487b7160e01b600052604160045260246000fd5b6040519080825280601f01601f191660200182016040528015610fd5576020820181803683370190505b5090505b841561086f57610fea600183611ba6565b9150610ff7600a86611c3f565b611002906030611b5b565b60f81b81838151811061102557634e487b7160e01b600052603260045260246000fd5b60200101906001600160f81b031916908160001a905350611047600a86611b73565b9450610fd9565b80516060908061106e575050604080516020810190915260008152919050565b6000600361107d836002611b5b565b6110879190611b73565b611092906004611b87565b905060006110a1826020611b5b565b67ffffffffffffffff8111156110c757634e487b7160e01b600052604160045260246000fd5b6040519080825280601f01601f1916602001820160405280156110f1576020820181803683370190505b5090506000604051806060016040528060408152602001611cac604091399050600181016020830160005b8681101561117d576003818a01810151603f601282901c8116860151600c83901c8216870151600684901c831688015192909316870151600891821b60ff94851601821b92841692909201901b91160160e01b83526004909201910161111c565b50600386066001811461119757600281146111a8576111b4565b613d3d60f01b6001198301526111b4565b603d60f81b6000198301525b505050918152949350505050565b6106c4828260405180602001604052806000815250611374565b6111e5826109f7565b6112485760405162461bcd60e51b815260206004820152602e60248201527f45524337323155524953746f726167653a2055524920736574206f66206e6f6e60448201526d32bc34b9ba32b73a103a37b5b2b760911b60648201526084016103ef565b60008281526006602090815260409091208251610525928401906114da565b60006001600160a01b0384163b1561136957604051630a85bd0160e11b81526001600160a01b0385169063150b7a02906112ab903390899088908890600401611a33565b602060405180830381600087803b1580156112c557600080fd5b505af19250505080156112f5575060408051601f3d908101601f191682019092526112f291810190611784565b60015b61134f573d808015611323576040519150601f19603f3d011682016040523d82523d6000602084013e611328565b606091505b5080516113475760405162461bcd60e51b81526004016103ef90611a83565b805181602001fd5b6001600160e01b031916630a85bd0160e11b14905061086f565b506001949350505050565b61137e83836113a7565b61138b6000848484611267565b6105255760405162461bcd60e51b81526004016103ef90611a83565b6001600160a01b0382166113fd5760405162461bcd60e51b815260206004820181905260248201527f4552433732313a206d696e7420746f20746865207a65726f206164647265737360448201526064016103ef565b611406816109f7565b156114535760405162461bcd60e51b815260206004820152601c60248201527f4552433732313a20746f6b656e20616c7265616479206d696e7465640000000060448201526064016103ef565b6001600160a01b038216600090815260036020526040812080546001929061147c908490611b5b565b909155505060008181526002602052604080822080546001600160a01b0319166001600160a01b03861690811790915590518392907fddf252ad1be2c89b69c2b068fc378daa952ba7f163c4a11628f55a4df523b3ef908290a45050565b8280546114e690611be9565b90600052602060002090601f016020900481019282611508576000855561154e565b82601f1061152157805160ff191683800117855561154e565b8280016001018555821561154e579182015b8281111561154e578251825591602001919060010190611533565b5061155a92915061155e565b5090565b5b8082111561155a576000815560010161155f565b600067ffffffffffffffff8084111561158e5761158e611c7f565b604051601f8501601f19908116603f011681019082821181831017156115b6576115b6611c7f565b816040528093508581528686860111156115cf57600080fd5b858560208301376000602087830101525050509392505050565b80356001600160a01b038116811461160057600080fd5b919050565b600060208284031215611616578081fd5b610f2d826115e9565b60008060408385031215611631578081fd5b61163a836115e9565b9150611648602084016115e9565b90509250929050565b600080600060608486031215611665578081fd5b61166e846115e9565b925061167c602085016115e9565b9150604084013590509250925092565b600080600080608085870312156116a1578081fd5b6116aa856115e9565b93506116b8602086016115e9565b925060408501359150606085013567ffffffffffffffff8111156116da578182fd5b8501601f810187136116ea578182fd5b6116f987823560208401611573565b91505092959194509250565b60008060408385031215611717578182fd5b611720836115e9565b915060208301358015158114611734578182fd5b809150509250929050565b60008060408385031215611751578182fd5b61175a836115e9565b946020939093013593505050565b600060208284031215611779578081fd5b8135610f2d81611c95565b600060208284031215611795578081fd5b8151610f2d81611c95565b6000602082840312156117b1578081fd5b813567ffffffffffffffff8111156117c7578182fd5b8201601f810184136117d7578182fd5b61086f84823560208401611573565b6000602082840312156117f7578081fd5b5035919050565b60008151808452611816816020860160208601611bbd565b601f01601f19169290920160200192915050565b6000815161183c818560208601611bbd565b9290920192915050565b60008351611858818460208801611bbd565b83519083019061186c818360208801611bbd565b01949350505050565b600080845482600182811c91508083168061189157607f831692505b60208084108214156118b157634e487b7160e01b87526022600452602487fd5b8180156118c557600181146118d657611902565b60ff19861689528489019650611902565b60008b815260209020885b868110156118fa5781548b8201529085019083016118e1565b505084890196505b505050505050611912818561182a565b95945050505050565b7f646174613a6170706c69636174696f6e2f6a736f6e3b6261736536342c00000081526000825161195381601d850160208701611bbd565b91909101601d0192915050565b7f7b20226e616d65223a202243727970746f436f636f4120230000000000000000815260008351611998816018850160208801611bbd565b7f222c20226465736372697074696f6e223a202241204e46542d706f77657265646018918401918201526f01021b93cb83a379021b7b1b7a09116160851b60388201526d0113a3930b4ba39911d102dae96160951b6048820152691134b6b0b3b2911d101160b11b60568201528351611a18816060840160208801611bbd565b61227d60f01b60609290910191820152606201949350505050565b6001600160a01b0385811682528416602082015260408101839052608060608201819052600090611a66908301846117fe565b9695505050505050565b602081526000610f2d60208301846117fe565b60208082526032908201527f4552433732313a207472616e7366657220746f206e6f6e20455243373231526560408201527131b2b4bb32b91034b6b83632b6b2b73a32b960711b606082015260800190565b6020808252818101527f4f776e61626c653a2063616c6c6572206973206e6f7420746865206f776e6572604082015260600190565b60208082526031908201527f4552433732313a207472616e736665722063616c6c6572206973206e6f74206f6040820152701ddb995c881b9bdc88185c1c1c9bdd9959607a1b606082015260800190565b60008219821115611b6e57611b6e611c53565b500190565b600082611b8257611b82611c69565b500490565b6000816000190483118215151615611ba157611ba1611c53565b500290565b600082821015611bb857611bb8611c53565b500390565b60005b83811015611bd8578181015183820152602001611bc0565b838111156106fa5750506000910152565b600181811c90821680611bfd57607f821691505b60208210811415611c1e57634e487b7160e01b600052602260045260246000fd5b50919050565b6000600019821415611c3857611c38611c53565b5060010190565b600082611c4e57611c4e611c69565b500690565b634e487b7160e01b600052601160045260246000fd5b634e487b7160e01b600052601260045260246000fd5b634e487b7160e01b600052604160045260246000fd5b6001600160e01b0319811681146109f457600080fdfe4142434445464748494a4b4c4d4e4f505152535455565758595a6162636465666768696a6b6c6d6e6f707172737475767778797a303132333435363738392b2fa2646970667358221220e290d6e29e00d0b95ef14df5f8fe7cc6b1150da4175aea88894e89b84cd39d3964736f6c63430008040033",
  "linkReferences": {},
  "deployedLinkReferences": {}
}